{
  "_format": "hh-sol-artifact-1",
  "contractName": "TodoList",
  "sourceName": "contracts/Todo.sol",
  "abi": [
    {
      "inputs": [
        {
          "internalType": "string",
          "name": "_title",
          "type": "string"
        },
        {
          "internalType": "string",
          "name": "_description",
          "type": "string"
        }
      ],
      "name": "addTodo",
      "outputs": [],
      "stateMutability": "nonpayable",
      "type": "function"
    },
    {
      "inputs": [],
      "name": "getAll",
      "outputs": [
        {
          "components": [
            {
              "internalType": "string",
              "name": "title",
              "type": "string"
            },
            {
              "internalType": "string",
              "name": "description",
              "type": "string"
            },
            {
              "internalType": "address",
              "name": "owner",
              "type": "address"
            },
            {
              "internalType": "uint256",
              "name": "UID",
              "type": "uint256"
            }
          ],
          "internalType": "struct Itodo.Todo[]",
          "name": "",
          "type": "tuple[]"
        }
      ],
      "stateMutability": "view",
      "type": "function"
    },
    {
      "inputs": [
        {
          "internalType": "address",
          "name": "_owner",
          "type": "address"
        }
      ],
      "name": "getByAddress",
      "outputs": [
        {
          "components": [
            {
              "internalType": "string",
              "name": "title",
              "type": "string"
            },
            {
              "internalType": "string",
              "name": "description",
              "type": "string"
            },
            {
              "internalType": "address",
              "name": "owner",
              "type": "address"
            },
            {
              "internalType": "uint256",
              "name": "UID",
              "type": "uint256"
            }
          ],
          "internalType": "struct Itodo.Todo[]",
          "name": "",
          "type": "tuple[]"
        }
      ],
      "stateMutability": "view",
      "type": "function"
    },
    {
      "inputs": [
        {
          "internalType": "string",
          "name": "_Newtitle",
          "type": "string"
        },
        {
          "internalType": "string",
          "name": "_Newdescription",
          "type": "string"
        },
        {
          "internalType": "uint256",
          "name": "_UID",
          "type": "uint256"
        }
      ],
      "name": "updateTodo",
      "outputs": [],
      "stateMutability": "nonpayable",
      "type": "function"
    }
  ],
  "bytecode": "0x6080604052348015600f57600080fd5b506111a28061001f6000396000f3fe608060405234801561001057600080fd5b506004361061004c5760003560e01c806314e94942146100515780631b7fb2601461006d57806330257bf71461008957806353ed5143146100b9575b600080fd5b61006b60048036038101906100669190610a3b565b6100d7565b005b61008760048036038101906100829190610ac6565b610233565b005b6100a3600480360381019061009e9190610b9c565b610468565b6040516100b09190610d92565b60405180910390f35b6100c161068a565b6040516100ce9190610d92565b60405180910390f35b82600082815481106100ec576100eb610db4565b5b906000526020600020906004020160000190816101099190610fef565b50816000828154811061011f5761011e610db4565b5b9060005260206000209060040201600101908161013c9190610fef565b506000600160003373ffffffffffffffffffffffffffffffffffffffff1673ffffffffffffffffffffffffffffffffffffffff168152602001908152602001600020905060005b818054905081101561022c57828282815481106101a3576101a2610db4565b5b9060005260206000209060040201600301540361021f57848282815481106101ce576101cd610db4565b5b906000526020600020906004020160000190816101eb9190610fef565b5083828281548110610200576101ff610db4565b5b9060005260206000209060040201600101908161021d9190610fef565b505b8080600101915050610183565b5050505050565b61023b61086d565b82816000018190525081816020018190525033816040019073ffffffffffffffffffffffffffffffffffffffff16908173ffffffffffffffffffffffffffffffffffffffff168152505060036000815480929190610298906110f0565b91905055816060018181525050600081908060018154018082558091505060019003906000526020600020906004020160009091909190915060008201518160000190816102e69190610fef565b5060208201518160010190816102fc9190610fef565b5060408201518160020160006101000a81548173ffffffffffffffffffffffffffffffffffffffff021916908373ffffffffffffffffffffffffffffffffffffffff160217905550606082015181600301555050600160003373ffffffffffffffffffffffffffffffffffffffff1673ffffffffffffffffffffffffffffffffffffffff16815260200190815260200160002081908060018154018082558091505060019003906000526020600020906004020160009091909190915060008201518160000190816103ce9190610fef565b5060208201518160010190816103e49190610fef565b5060408201518160020160006101000a81548173ffffffffffffffffffffffffffffffffffffffff021916908373ffffffffffffffffffffffffffffffffffffffff160217905550606082015181600301555050600160008054905061044a9190611138565b60026000600354815260200190815260200160002081905550505050565b6060600160008373ffffffffffffffffffffffffffffffffffffffff1673ffffffffffffffffffffffffffffffffffffffff168152602001908152602001600020805480602002602001604051908101604052809291908181526020016000905b8282101561067f57838290600052602060002090600402016040518060800160405290816000820180546104fc90610e12565b80601f016020809104026020016040519081016040528092919081815260200182805461052890610e12565b80156105755780601f1061054a57610100808354040283529160200191610575565b820191906000526020600020905b81548152906001019060200180831161055857829003601f168201915b5050505050815260200160018201805461058e90610e12565b80601f01602080910402602001604051908101604052809291908181526020018280546105ba90610e12565b80156106075780601f106105dc57610100808354040283529160200191610607565b820191906000526020600020905b8154815290600101906020018083116105ea57829003601f168201915b505050505081526020016002820160009054906101000a900473ffffffffffffffffffffffffffffffffffffffff1673ffffffffffffffffffffffffffffffffffffffff1673ffffffffffffffffffffffffffffffffffffffff168152602001600382015481525050815260200190600101906104c9565b505050509050919050565b60606000805480602002602001604051908101604052809291908181526020016000905b8282101561086457838290600052602060002090600402016040518060800160405290816000820180546106e190610e12565b80601f016020809104026020016040519081016040528092919081815260200182805461070d90610e12565b801561075a5780601f1061072f5761010080835404028352916020019161075a565b820191906000526020600020905b81548152906001019060200180831161073d57829003601f168201915b5050505050815260200160018201805461077390610e12565b80601f016020809104026020016040519081016040528092919081815260200182805461079f90610e12565b80156107ec5780601f106107c1576101008083540402835291602001916107ec565b820191906000526020600020905b8154815290600101906020018083116107cf57829003601f168201915b505050505081526020016002820160009054906101000a900473ffffffffffffffffffffffffffffffffffffffff1673ffffffffffffffffffffffffffffffffffffffff1673ffffffffffffffffffffffffffffffffffffffff168152602001600382015481525050815260200190600101906106ae565b50505050905090565b60405180608001604052806060815260200160608152602001600073ffffffffffffffffffffffffffffffffffffffff168152602001600081525090565b6000604051905090565b600080fd5b600080fd5b600080fd5b600080fd5b6000601f19601f8301169050919050565b7f4e487b7100000000000000000000000000000000000000000000000000000000600052604160045260246000fd5b610912826108c9565b810181811067ffffffffffffffff82111715610931576109306108da565b5b80604052505050565b60006109446108ab565b90506109508282610909565b919050565b600067ffffffffffffffff8211156109705761096f6108da565b5b610979826108c9565b9050602081019050919050565b82818337600083830152505050565b60006109a86109a384610955565b61093a565b9050828152602081018484840111156109c4576109c36108c4565b5b6109cf848285610986565b509392505050565b600082601f8301126109ec576109eb6108bf565b5b81356109fc848260208601610995565b91505092915050565b6000819050919050565b610a1881610a05565b8114610a2357600080fd5b50565b600081359050610a3581610a0f565b92915050565b600080600060608486031215610a5457610a536108b5565b5b600084013567ffffffffffffffff811115610a7257610a716108ba565b5b610a7e868287016109d7565b935050602084013567ffffffffffffffff811115610a9f57610a9e6108ba565b5b610aab868287016109d7565b9250506040610abc86828701610a26565b9150509250925092565b60008060408385031215610add57610adc6108b5565b5b600083013567ffffffffffffffff811115610afb57610afa6108ba565b5b610b07858286016109d7565b925050602083013567ffffffffffffffff811115610b2857610b276108ba565b5b610b34858286016109d7565b9150509250929050565b600073ffffffffffffffffffffffffffffffffffffffff82169050919050565b6000610b6982610b3e565b9050919050565b610b7981610b5e565b8114610b8457600080fd5b50565b600081359050610b9681610b70565b92915050565b600060208284031215610bb257610bb16108b5565b5b6000610bc084828501610b87565b91505092915050565b600081519050919050565b600082825260208201905092915050565b6000819050602082019050919050565b600081519050919050565b600082825260208201905092915050565b60005b83811015610c2f578082015181840152602081019050610c14565b60008484015250505050565b6000610c4682610bf5565b610c508185610c00565b9350610c60818560208601610c11565b610c69816108c9565b840191505092915050565b610c7d81610b5e565b82525050565b610c8c81610a05565b82525050565b60006080830160008301518482036000860152610caf8282610c3b565b91505060208301518482036020860152610cc98282610c3b565b9150506040830151610cde6040860182610c74565b506060830151610cf16060860182610c83565b508091505092915050565b6000610d088383610c92565b905092915050565b6000602082019050919050565b6000610d2882610bc9565b610d328185610bd4565b935083602082028501610d4485610be5565b8060005b85811015610d805784840389528151610d618582610cfc565b9450610d6c83610d10565b925060208a01995050600181019050610d48565b50829750879550505050505092915050565b60006020820190508181036000830152610dac8184610d1d565b905092915050565b7f4e487b7100000000000000000000000000000000000000000000000000000000600052603260045260246000fd5b7f4e487b7100000000000000000000000000000000000000000000000000000000600052602260045260246000fd5b60006002820490506001821680610e2a57607f821691505b602082108103610e3d57610e3c610de3565b5b50919050565b60008190508160005260206000209050919050565b60006020601f8301049050919050565b600082821b905092915050565b600060088302610ea57fffffffffffffffffffffffffffffffffffffffffffffffffffffffffffffffff82610e68565b610eaf8683610e68565b95508019841693508086168417925050509392505050565b6000819050919050565b6000610eec610ee7610ee284610a05565b610ec7565b610a05565b9050919050565b6000819050919050565b610f0683610ed1565b610f1a610f1282610ef3565b848454610e75565b825550505050565b600090565b610f2f610f22565b610f3a818484610efd565b505050565b5b81811015610f5e57610f53600082610f27565b600181019050610f40565b5050565b601f821115610fa357610f7481610e43565b610f7d84610e58565b81016020851015610f8c578190505b610fa0610f9885610e58565b830182610f3f565b50505b505050565b600082821c905092915050565b6000610fc660001984600802610fa8565b1980831691505092915050565b6000610fdf8383610fb5565b9150826002028217905092915050565b610ff882610bf5565b67ffffffffffffffff811115611011576110106108da565b5b61101b8254610e12565b611026828285610f62565b600060209050601f8311600181146110595760008415611047578287015190505b6110518582610fd3565b8655506110b9565b601f19841661106786610e43565b60005b8281101561108f5784890151825560018201915060208501945060208101905061106a565b868310156110ac57848901516110a8601f891682610fb5565b8355505b6001600288020188555050505b505050505050565b7f4e487b7100000000000000000000000000000000000000000000000000000000600052601160045260246000fd5b60006110fb82610a05565b91507fffffffffffffffffffffffffffffffffffffffffffffffffffffffffffffffff820361112d5761112c6110c1565b5b600182019050919050565b600061114382610a05565b915061114e83610a05565b9250828203905081811115611166576111656110c1565b5b9291505056fea2646970667358221220056906294370a29fb7564dde1f8e21ce6953c9805d941b3198a5ba0644359b6664736f6c634300081e0033",
  "linkReferences": {},
  "deployedLinkReferences": {}
}